{
  "contractName": "EssayHub",
  "abi": [
    {
      "constant": true,
      "inputs": [],
      "name": "count",
      "outputs": [
        {
          "name": "",
          "type": "uint256"
        }
      ],
      "payable": false,
      "stateMutability": "view",
      "type": "function"
    },
    {
      "constant": true,
      "inputs": [
        {
          "name": "",
          "type": "uint256"
        }
      ],
      "name": "essays",
      "outputs": [
        {
          "name": "authorName",
          "type": "string"
        },
        {
          "name": "essayName",
          "type": "string"
        },
        {
          "name": "essayType",
          "type": "string"
        },
        {
          "name": "hashfile",
          "type": "string"
        },
        {
          "name": "ipfshash",
          "type": "string"
        },
        {
          "name": "time",
          "type": "uint32"
        },
        {
          "name": "Score",
          "type": "uint32"
        },
        {
          "name": "ShareCount",
          "type": "uint32"
        },
        {
          "name": "ExclusiveCost",
          "type": "uint256"
        }
      ],
      "payable": false,
      "stateMutability": "view",
      "type": "function"
    },
    {
      "inputs": [],
      "payable": false,
      "stateMutability": "nonpayable",
      "type": "constructor"
    },
    {
      "constant": false,
      "inputs": [
        {
          "name": "authorName",
          "type": "string"
        },
        {
          "name": "essayName",
          "type": "string"
        },
        {
          "name": "essayType",
          "type": "string"
        },
        {
          "name": "hashfile",
          "type": "string"
        },
        {
          "name": "ipfshash",
          "type": "string"
        },
        {
          "name": "ExclusiveCost",
          "type": "uint256"
        }
      ],
      "name": "uploadEssay",
      "outputs": [
        {
          "name": "",
          "type": "bool"
        }
      ],
      "payable": false,
      "stateMutability": "nonpayable",
      "type": "function"
    },
    {
      "constant": false,
      "inputs": [
        {
          "name": "hashfile",
          "type": "string"
        }
      ],
      "name": "checkEssayUploading",
      "outputs": [
        {
          "name": "",
          "type": "bool"
        }
      ],
      "payable": false,
      "stateMutability": "nonpayable",
      "type": "function"
    },
    {
      "constant": false,
      "inputs": [
        {
          "name": "ID",
          "type": "uint256"
        }
      ],
      "name": "getEssay",
      "outputs": [
        {
          "name": "Author",
          "type": "string"
        },
        {
          "name": "Essay",
          "type": "string"
        },
        {
          "name": "hashfile",
          "type": "string"
        },
        {
          "name": "Type",
          "type": "string"
        },
        {
          "name": "Time",
          "type": "uint32"
        },
        {
          "name": "Score",
          "type": "uint32"
        },
        {
          "name": "ShareCount",
          "type": "uint32"
        },
        {
          "name": "ExclusiveCost",
          "type": "uint256"
        }
      ],
      "payable": false,
      "stateMutability": "nonpayable",
      "type": "function"
    },
    {
      "constant": false,
      "inputs": [
        {
          "name": "id",
          "type": "uint256"
        }
      ],
      "name": "votingByTeacher",
      "outputs": [],
      "payable": false,
      "stateMutability": "nonpayable",
      "type": "function"
    },
    {
      "constant": false,
      "inputs": [
        {
          "name": "id",
          "type": "uint256"
        }
      ],
      "name": "votingByOther",
      "outputs": [],
      "payable": false,
      "stateMutability": "nonpayable",
      "type": "function"
    },
    {
      "constant": false,
      "inputs": [
        {
          "name": "id",
          "type": "uint256"
        }
      ],
      "name": "getCostToShareView",
      "outputs": [
        {
          "name": "filehash",
          "type": "string"
        },
        {
          "name": "ipfsHash",
          "type": "string"
        }
      ],
      "payable": false,
      "stateMutability": "nonpayable",
      "type": "function"
    },
    {
      "constant": false,
      "inputs": [
        {
          "name": "id",
          "type": "uint256"
        }
      ],
      "name": "getCostToExclusiveView",
      "outputs": [
        {
          "name": "filehash",
          "type": "string"
        },
        {
          "name": "ipfsHash",
          "type": "string"
        }
      ],
      "payable": true,
      "stateMutability": "payable",
      "type": "function"
    }
  ],
  "bytecode": "0x608060405234801561001057600080fd5b50612211806100206000396000f300608060405260043610610099576000357c0100000000000000000000000000000000000000000000000000000000900463ffffffff16806306661abd1461009e57806308900524146100c95780632b77a506146101ce5780633ae4b03d146101fb57806351b6c2ce1461027c5780636e088c13146104a65780637ef918f8146106495780639fbf255c146108df578063eecf1a69146109f1575b600080fd5b3480156100aa57600080fd5b506100b3610a1e565b6040518082815260200191505060405180910390f35b6100e760048036038101908080359060200190929190505050610a24565b604051808060200180602001838103835285818151815260200191508051906020019080838360005b8381101561012b578082015181840152602081019050610110565b50505050905090810190601f1680156101585780820380516001836020036101000a031916815260200191505b50838103825284818151815260200191508051906020019080838360005b83811015610191578082015181840152602081019050610176565b50505050905090810190601f1680156101be5780820380516001836020036101000a031916815260200191505b5094505050505060405180910390f35b3480156101da57600080fd5b506101f960048036038101908080359060200190929190505050610de0565b005b34801561020757600080fd5b50610262600480360381019080803590602001908201803590602001908080601f0160208091040260200160405190810160405280939291908181526020018383808284378201915050505050509192919290505050610f05565b604051808215151515815260200191505060405180910390f35b34801561028857600080fd5b506102a76004803603810190808035906020019092919050505061102c565b60405180806020018060200180602001806020018963ffffffff1663ffffffff1681526020018863ffffffff1663ffffffff1681526020018763ffffffff1663ffffffff16815260200186815260200185810385528d818151815260200191508051906020019080838360005b8381101561032f578082015181840152602081019050610314565b50505050905090810190601f16801561035c5780820380516001836020036101000a031916815260200191505b5085810384528c818151815260200191508051906020019080838360005b8381101561039557808201518184015260208101905061037a565b50505050905090810190601f1680156103c25780820380516001836020036101000a031916815260200191505b5085810383528b818151815260200191508051906020019080838360005b838110156103fb5780820151818401526020810190506103e0565b50505050905090810190601f1680156104285780820380516001836020036101000a031916815260200191505b5085810382528a818151815260200191508051906020019080838360005b83811015610461578082015181840152602081019050610446565b50505050905090810190601f16801561048e5780820380516001836020036101000a031916815260200191505b509c5050505050505050505050505060405180910390f35b3480156104b257600080fd5b5061062f600480360381019080803590602001908201803590602001908080601f0160208091040260200160405190810160405280939291908181526020018383808284378201915050505050509192919290803590602001908201803590602001908080601f0160208091040260200160405190810160405280939291908181526020018383808284378201915050505050509192919290803590602001908201803590602001908080601f0160208091040260200160405190810160405280939291908181526020018383808284378201915050505050509192919290803590602001908201803590602001908080601f0160208091040260200160405190810160405280939291908181526020018383808284378201915050505050509192919290803590602001908201803590602001908080601f0160208091040260200160405190810160405280939291908181526020018383808284378201915050505050509192919290803590602001909291905050506113fd565b604051808215151515815260200191505060405180910390f35b34801561065557600080fd5b506106746004803603810190808035906020019092919050505061197c565b6040518080602001806020018060200180602001806020018a63ffffffff1663ffffffff1681526020018963ffffffff1663ffffffff1681526020018863ffffffff1663ffffffff16815260200187815260200186810386528f818151815260200191508051906020019080838360005b838110156107005780820151818401526020810190506106e5565b50505050905090810190601f16801561072d5780820380516001836020036101000a031916815260200191505b5086810385528e818151815260200191508051906020019080838360005b8381101561076657808201518184015260208101905061074b565b50505050905090810190601f1680156107935780820380516001836020036101000a031916815260200191505b5086810384528d818151815260200191508051906020019080838360005b838110156107cc5780820151818401526020810190506107b1565b50505050905090810190601f1680156107f95780820380516001836020036101000a031916815260200191505b5086810383528c818151815260200191508051906020019080838360005b83811015610832578082015181840152602081019050610817565b50505050905090810190601f16801561085f5780820380516001836020036101000a031916815260200191505b5086810382528b818151815260200191508051906020019080838360005b8381101561089857808201518184015260208101905061087d565b50505050905090810190601f1680156108c55780820380516001836020036101000a031916815260200191505b509e50505050505050505050505050505060405180910390f35b3480156108eb57600080fd5b5061090a60048036038101908080359060200190929190505050611d01565b604051808060200180602001838103835285818151815260200191508051906020019080838360005b8381101561094e578082015181840152602081019050610933565b50505050905090810190601f16801561097b5780820380516001836020036101000a031916815260200191505b50838103825284818151815260200191508051906020019080838360005b838110156109b4578082015181840152602081019050610999565b50505050905090810190601f1680156109e15780820380516001836020036101000a031916815260200191505b5094505050505060405180910390f35b3480156109fd57600080fd5b50610a1c60048036038101908080359060200190929190505050612063565b005b60035481565b6060806060600284815481101515610a3857fe5b90600052602060002090600702016003018054600181600116156101000203166002900480601f016020809104026020016040519081016040528092919081815260200182805460018160011615610100020316600290048015610add5780601f10610ab257610100808354040283529160200191610add565b820191906000526020600020905b815481529060010190602001808311610ac057829003601f168201915b50505050509050600115156004826040518082805190602001908083835b602083101515610b205780518252602082019150602081019050602083039250610afb565b6001836020036101000a038019825116818451168082178552505050505050905001915050908152602001604051809103902060000160009054906101000a900460ff161515148015610bf25750600015156004826040518082805190602001908083835b602083101515610baa5780518252602082019150602081019050602083039250610b85565b6001836020036101000a038019825116818451168082178552505050505050905001915050908152602001604051809103902060000160019054906101000a900460ff161515145b8015610c1e5750600284815481101515610c0857fe5b9060005260206000209060070201600601543410155b1515610c92576040517f08c379a000000000000000000000000000000000000000000000000000000000815260040180806020018281038252600a8152602001807f4e6f74204163636573730000000000000000000000000000000000000000000081525060200191505060405180910390fd5b60016004826040518082805190602001908083835b602083101515610ccc5780518252602082019150602081019050602083039250610ca7565b6001836020036101000a038019825116818451168082178552505050505050905001915050908152602001604051809103902060000160016101000a81548160ff02191690831515021790555080600285815481101515610d2957fe5b9060005260206000209060070201600401808054600181600116156101000203166002900480601f016020809104026020016040519081016040528092919081815260200182805460018160011615610100020316600290048015610dcf5780601f10610da457610100808354040283529160200191610dcf565b820191906000526020600020905b815481529060010190602001808311610db257829003601f168201915b505050505090509250925050915091565b610de86120bb565b3373ffffffffffffffffffffffffffffffffffffffff16600160009054906101000a900473ffffffffffffffffffffffffffffffffffffffff1673ffffffffffffffffffffffffffffffffffffffff16141515610ead576040517f08c379a00000000000000000000000000000000000000000000000000000000081526004018080602001828103825260118152602001807f496e636f7272656374204164647265737300000000000000000000000000000081525060200191505060405180910390fd5b6005600282815481101515610ebe57fe5b906000526020600020906007020160050160048282829054906101000a900463ffffffff160192506101000a81548163ffffffff021916908363ffffffff16021790555050565b60006004826040518082805190602001908083835b602083101515610f3f5780518252602082019150602081019050602083039250610f1a565b6001836020036101000a038019825116818451168082178552505050505050905001915050908152602001604051809103902060000160009054906101000a900460ff1615610f915760009050611027565b600115156004836040518082805190602001908083835b602083101515610fcd5780518252602082019150602081019050602083039250610fa8565b6001836020036101000a038019825116818451168082178552505050505050905001915050908152602001604051809103902060000160019054906101000a900460ff16151514156110225760009050611027565b600190505b919050565b606080606080600080600080600089905060028181548110151561104c57fe5b906000526020600020906007020160000160028281548110151561106c57fe5b906000526020600020906007020160010160028381548110151561108c57fe5b90600052602060002090600702016003016002848154811015156110ac57fe5b90600052602060002090600702016002016002858154811015156110cc57fe5b906000526020600020906007020160050160009054906101000a900463ffffffff166002868154811015156110fd57fe5b906000526020600020906007020160050160049054906101000a900463ffffffff1660028781548110151561112e57fe5b906000526020600020906007020160050160089054906101000a900463ffffffff1660028881548110151561115f57fe5b906000526020600020906007020160060154878054600181600116156101000203166002900480601f0160208091040260200160405190810160405280929190818152602001828054600181600116156101000203166002900480156112065780601f106111db57610100808354040283529160200191611206565b820191906000526020600020905b8154815290600101906020018083116111e957829003601f168201915b50505050509750868054600181600116156101000203166002900480601f0160208091040260200160405190810160405280929190818152602001828054600181600116156101000203166002900480156112a25780601f10611277576101008083540402835291602001916112a2565b820191906000526020600020905b81548152906001019060200180831161128557829003601f168201915b50505050509650858054600181600116156101000203166002900480601f01602080910402602001604051908101604052809291908181526020018280546001816001161561010002031660029004801561133e5780601f106113135761010080835404028352916020019161133e565b820191906000526020600020905b81548152906001019060200180831161132157829003601f168201915b50505050509550848054600181600116156101000203166002900480601f0160208091040260200160405190810160405280929190818152602001828054600181600116156101000203166002900480156113da5780601f106113af576101008083540402835291602001916113da565b820191906000526020600020905b8154815290600101906020018083116113bd57829003601f168201915b505050505094509850985098509850985098509850985050919395975091939597565b6000806114086120fe565b3373ffffffffffffffffffffffffffffffffffffffff166000809054906101000a900473ffffffffffffffffffffffffffffffffffffffff1673ffffffffffffffffffffffffffffffffffffffff161415156114cc576040517f08c379a00000000000000000000000000000000000000000000000000000000081526004018080602001828103825260118152602001807f496e636f7272656374204164647265737300000000000000000000000000000081525060200191505060405180910390fd5b6114d46120bb565b3373ffffffffffffffffffffffffffffffffffffffff16600160009054906101000a900473ffffffffffffffffffffffffffffffffffffffff1673ffffffffffffffffffffffffffffffffffffffff16141515611599576040517f08c379a00000000000000000000000000000000000000000000000000000000081526004018080602001828103825260118152602001807f496e636f7272656374204164647265737300000000000000000000000000000081525060200191505060405180910390fd5b600015156004866040518082805190602001908083835b6020831015156115d557805182526020820191506020810190506020830392506115b0565b6001836020036101000a038019825116818451168082178552505050505050905001915050908152602001604051809103902060000160009054906101000a900460ff1615151480156116a75750600015156004866040518082805190602001908083835b60208310151561165f578051825260208201915060208101905060208303925061163a565b6001836020036101000a038019825116818451168082178552505050505050905001915050908152602001604051809103902060000160019054906101000a900460ff161515145b1561196c576002610120604051908101604052808a81526020018981526020018881526020018781526020018681526020014263ffffffff168152602001600063ffffffff168152602001600063ffffffff1681526020018581525090806001815401808255809150509060018203906000526020600020906007020160009091929091909150600082015181600001908051906020019061174a929190612140565b506020820151816001019080519060200190611767929190612140565b506040820151816002019080519060200190611784929190612140565b5060608201518160030190805190602001906117a1929190612140565b5060808201518160040190805190602001906117be929190612140565b5060a08201518160050160006101000a81548163ffffffff021916908363ffffffff16021790555060c08201518160050160046101000a81548163ffffffff021916908363ffffffff16021790555060e08201518160050160086101000a81548163ffffffff021916908363ffffffff16021790555061010082015181600601555050905060016004866040518082805190602001908083835b60208310151561187d5780518252602082019150602081019050602083039250611858565b6001836020036101000a038019825116818451168082178552505050505050905001915050908152602001604051809103902060000160006101000a81548160ff02191690831515021790555060006004866040518082805190602001908083835b60208310151561190457805182526020820191506020810190506020830392506118df565b6001836020036101000a038019825116818451168082178552505050505050905001915050908152602001604051809103902060000160016101000a81548160ff02191690831515021790555060036000815480929190600101919050555060019150611971565b600091505b509695505050505050565b60028181548110151561198b57fe5b9060005260206000209060070201600091509050806000018054600181600116156101000203166002900480601f016020809104026020016040519081016040528092919081815260200182805460018160011615610100020316600290048015611a375780601f10611a0c57610100808354040283529160200191611a37565b820191906000526020600020905b815481529060010190602001808311611a1a57829003601f168201915b505050505090806001018054600181600116156101000203166002900480601f016020809104026020016040519081016040528092919081815260200182805460018160011615610100020316600290048015611ad55780601f10611aaa57610100808354040283529160200191611ad5565b820191906000526020600020905b815481529060010190602001808311611ab857829003601f168201915b505050505090806002018054600181600116156101000203166002900480601f016020809104026020016040519081016040528092919081815260200182805460018160011615610100020316600290048015611b735780601f10611b4857610100808354040283529160200191611b73565b820191906000526020600020905b815481529060010190602001808311611b5657829003601f168201915b505050505090806003018054600181600116156101000203166002900480601f016020809104026020016040519081016040528092919081815260200182805460018160011615610100020316600290048015611c115780601f10611be657610100808354040283529160200191611c11565b820191906000526020600020905b815481529060010190602001808311611bf457829003601f168201915b505050505090806004018054600181600116156101000203166002900480601f016020809104026020016040519081016040528092919081815260200182805460018160011615610100020316600290048015611caf5780601f10611c8457610100808354040283529160200191611caf565b820191906000526020600020905b815481529060010190602001808311611c9257829003601f168201915b5050505050908060050160009054906101000a900463ffffffff16908060050160049054906101000a900463ffffffff16908060050160089054906101000a900463ffffffff16908060060154905089565b6060806060600284815481101515611d1557fe5b90600052602060002090600702016003018054600181600116156101000203166002900480601f016020809104026020016040519081016040528092919081815260200182805460018160011615610100020316600290048015611dba5780601f10611d8f57610100808354040283529160200191611dba565b820191906000526020600020905b815481529060010190602001808311611d9d57829003601f168201915b50505050509050600115156004826040518082805190602001908083835b602083101515611dfd5780518252602082019150602081019050602083039250611dd8565b6001836020036101000a038019825116818451168082178552505050505050905001915050908152602001604051809103902060000160009054906101000a900460ff161515148015611ecf5750600015156004826040518082805190602001908083835b602083101515611e875780518252602082019150602081019050602083039250611e62565b6001836020036101000a038019825116818451168082178552505050505050905001915050908152602001604051809103902060000160019054906101000a900460ff161515145b1515611f43576040517f08c379a000000000000000000000000000000000000000000000000000000000815260040180806020018281038252600a8152602001807f4e6f74204163636573730000000000000000000000000000000000000000000081525060200191505060405180910390fd5b600284815481101515611f5257fe5b9060005260206000209060070201600501600881819054906101000a900463ffffffff168092919060010191906101000a81548163ffffffff021916908363ffffffff1602179055505080600285815481101515611fac57fe5b9060005260206000209060070201600401808054600181600116156101000203166002900480601f0160208091040260200160405190810160405280929190818152602001828054600181600116156101000203166002900480156120525780601f1061202757610100808354040283529160200191612052565b820191906000526020600020905b81548152906001019060200180831161203557829003601f168201915b505050505090509250925050915091565b600160028281548110151561207457fe5b906000526020600020906007020160050160048282829054906101000a900463ffffffff160192506101000a81548163ffffffff021916908363ffffffff16021790555050565b33600160006101000a81548173ffffffffffffffffffffffffffffffffffffffff021916908373ffffffffffffffffffffffffffffffffffffffff160217905550565b336000806101000a81548173ffffffffffffffffffffffffffffffffffffffff021916908373ffffffffffffffffffffffffffffffffffffffff160217905550565b828054600181600116156101000203166002900490600052602060002090601f016020900481019282601f1061218157805160ff19168380011785556121af565b828001600101855582156121af579182015b828111156121ae578251825591602001919060010190612193565b5b5090506121bc91906121c0565b5090565b6121e291905b808211156121de5760008160009055506001016121c6565b5090565b905600a165627a7a723058200c1bff069067161a96f2842afb7df9ad849b892f05c5018312784a724046a83f0029",
  "source": "pragma solidity ^0.4.22;\n\ncontract hasPermission{\n  constructor(){\n    \n  }\n\n  address student;\n  address teacher;\n\n  function setStudent() private {\n    student = msg.sender;\n  }\n\n  function setTeacher() private {\n    teacher = msg.sender;\n  }\n\n  modifier onlyStudent{\n    setStudent();\n    require(student == msg.sender, \"Incorrect Address\");\n    _;\n  }\n\n  modifier onlyTeacher{\n    setTeacher();\n    require(teacher==msg.sender, \"Incorrect Address\");\n    _;\n  }\n}\n\ncontract EssayHub is hasPermission {\n  constructor() {\n  }\n\n  struct EssayInfo{\n    string authorName;\n    string essayName;\n    string essayType;\n    string hashfile;\n    string ipfshash;\n    uint32 time;\n    uint32 Score;\n    uint32 ShareCount;\n    uint ExclusiveCost;\n  }\n\n  struct checkEssay{\n    bool checkExistFile;\n    bool checkExclusiveFile;\n  }\n\n  EssayInfo[] public essays;\n  uint public count;\n  mapping (string => checkEssay) private verifyEssay;\n\n  // The upload file system\n  function uploadEssay(string authorName, string essayName, string essayType, string hashfile, string ipfshash, uint ExclusiveCost) public onlyStudent onlyTeacher returns(bool) {\n    if (verifyEssay[hashfile].checkExistFile == false && verifyEssay[hashfile].checkExclusiveFile == false) {\n      uint id = essays.push(EssayInfo(authorName, essayName, essayType, hashfile, ipfshash, uint32(now), 0, 0, ExclusiveCost));\n      verifyEssay[hashfile].checkExistFile = true;\n      verifyEssay[hashfile].checkExclusiveFile = false;\n      count++;\n      return true;\n    } \n    return false;\n  }\n\n  function checkEssayUploading(string hashfile) public returns (bool) {\n    if (verifyEssay[hashfile].checkExistFile) {\n      return false;\n    } else if(verifyEssay[hashfile].checkExclusiveFile==true) {\n      return false;\n    }\n    return true;\n  }\n\n  //Set id essay\n  function getEssay(uint ID) public returns (string Author, string Essay, string hashfile, string Type, uint32 Time, uint32 Score, uint32 ShareCount, uint ExclusiveCost) {\n    uint id = ID;\n    return (essays[id].authorName, essays[id].essayName, essays[id].hashfile ,essays[id].essayType, essays[id].time, essays[id].Score, essays[id].ShareCount, essays[id].ExclusiveCost);\n  }\n\n  // Voting system\n  function votingByTeacher(uint id) public onlyTeacher{\n    essays[id].Score += 5;\n  }\n  function votingByOther(uint id) public {\n    essays[id].Score += 1;\n  }\n\n  // Classify view\n  function getCostToShareView(uint id) public returns (string filehash, string ipfsHash) {\n    string memory hashfile = essays[id].hashfile;\n    require(verifyEssay[hashfile].checkExistFile == true && verifyEssay[hashfile].checkExclusiveFile == false, \"Not Access\");\n    essays[id].ShareCount++;\n    return (hashfile, essays[id].ipfshash);\n  }\n\n  function getCostToExclusiveView(uint id) public payable returns (string filehash, string ipfsHash){\n    string memory hashfile = essays[id].hashfile;\n    require(verifyEssay[hashfile].checkExistFile == true && verifyEssay[hashfile].checkExclusiveFile == false && msg.value >= essays[id].ExclusiveCost, \"Not Access\");\n    verifyEssay[hashfile].checkExclusiveFile = true;\n    return (hashfile, essays[id].ipfshash);\n  }\n\n}\n",
  "sourcePath": "/home/blockchain/Desktop/CityNowProject/projects/universityEssayHub/contracts/EssayHub.sol",
  "compiler": {
    "name": "solc",
    "version": "0.4.24+commit.e67f0147.Emscripten.clang"
  },
  "schemaVersion": "2.0.1",
  "updatedAt": "2018-09-17T16:01:10.387Z"
}