{
  "contractName": "EssayInfo",
  "abi": [
    {
      "inputs": [],
      "payable": false,
      "stateMutability": "nonpayable",
      "type": "constructor"
    },
    {
      "constant": false,
      "inputs": [
        {
          "name": "authorname",
          "type": "string"
        },
        {
          "name": "essayname",
          "type": "string"
        },
        {
          "name": "filehash",
          "type": "string"
        },
        {
          "name": "ipfshash",
          "type": "string"
        },
        {
          "name": "filetype",
          "type": "string"
        }
      ],
      "name": "SetEssay",
      "outputs": [],
      "payable": false,
      "stateMutability": "nonpayable",
      "type": "function"
    },
    {
      "constant": true,
      "inputs": [],
      "name": "getEssay",
      "outputs": [
        {
          "name": "Author",
          "type": "string"
        },
        {
          "name": "Name",
          "type": "string"
        },
        {
          "name": "FileHash",
          "type": "string"
        },
        {
          "name": "Type",
          "type": "string"
        },
        {
          "name": "ipfs",
          "type": "string"
        },
        {
          "name": "Time",
          "type": "uint32"
        },
        {
          "name": "authoraddr",
          "type": "address"
        }
      ],
      "payable": false,
      "stateMutability": "view",
      "type": "function"
    }
  ],
  "bytecode": "0x608060405234801561001057600080fd5b5033600160006101000a81548173ffffffffffffffffffffffffffffffffffffffff021916908373ffffffffffffffffffffffffffffffffffffffff160217905550610932806100616000396000f30060806040526004361061004c576000357c0100000000000000000000000000000000000000000000000000000000900463ffffffff168063902fbc3f14610051578063b59b3c37146102d7575b600080fd5b34801561005d57600080fd5b50610066610458565b6040518080602001806020018060200180602001806020018863ffffffff1663ffffffff1681526020018773ffffffffffffffffffffffffffffffffffffffff1673ffffffffffffffffffffffffffffffffffffffff16815260200186810386528d818151815260200191508051906020019080838360005b838110156100fa5780820151818401526020810190506100df565b50505050905090810190601f1680156101275780820380516001836020036101000a031916815260200191505b5086810385528c818151815260200191508051906020019080838360005b83811015610160578082015181840152602081019050610145565b50505050905090810190601f16801561018d5780820380516001836020036101000a031916815260200191505b5086810384528b818151815260200191508051906020019080838360005b838110156101c65780820151818401526020810190506101ab565b50505050905090810190601f1680156101f35780820380516001836020036101000a031916815260200191505b5086810383528a818151815260200191508051906020019080838360005b8381101561022c578082015181840152602081019050610211565b50505050905090810190601f1680156102595780820380516001836020036101000a031916815260200191505b50868103825289818151815260200191508051906020019080838360005b83811015610292578082015181840152602081019050610277565b50505050905090810190601f1680156102bf5780820380516001836020036101000a031916815260200191505b509c5050505050505050505050505060405180910390f35b3480156102e357600080fd5b50610456600480360381019080803590602001908201803590602001908080601f0160208091040260200160405190810160405280939291908181526020018383808284378201915050505050509192919290803590602001908201803590602001908080601f0160208091040260200160405190810160405280939291908181526020018383808284378201915050505050509192919290803590602001908201803590602001908080601f0160208091040260200160405190810160405280939291908181526020018383808284378201915050505050509192919290803590602001908201803590602001908080601f0160208091040260200160405190810160405280939291908181526020018383808284378201915050505050509192919290803590602001908201803590602001908080601f01602080910402602001604051908101604052809392919081815260200183838082843782019150505050505091929192905050506107c6565b005b606080606080606060008060006002600360056004600660009054906101000a900463ffffffff16600160009054906101000a900473ffffffffffffffffffffffffffffffffffffffff16868054600181600116156101000203166002900480601f0160208091040260200160405190810160405280929190818152602001828054600181600116156101000203166002900480156105385780601f1061050d57610100808354040283529160200191610538565b820191906000526020600020905b81548152906001019060200180831161051b57829003601f168201915b50505050509650858054600181600116156101000203166002900480601f0160208091040260200160405190810160405280929190818152602001828054600181600116156101000203166002900480156105d45780601f106105a9576101008083540402835291602001916105d4565b820191906000526020600020905b8154815290600101906020018083116105b757829003601f168201915b50505050509550848054600181600116156101000203166002900480601f0160208091040260200160405190810160405280929190818152602001828054600181600116156101000203166002900480156106705780601f1061064557610100808354040283529160200191610670565b820191906000526020600020905b81548152906001019060200180831161065357829003601f168201915b50505050509450838054600181600116156101000203166002900480601f01602080910402602001604051908101604052809291908181526020018280546001816001161561010002031660029004801561070c5780601f106106e15761010080835404028352916020019161070c565b820191906000526020600020905b8154815290600101906020018083116106ef57829003601f168201915b50505050509350828054600181600116156101000203166002900480601f0160208091040260200160405190810160405280929190818152602001828054600181600116156101000203166002900480156107a85780601f1061077d576101008083540402835291602001916107a8565b820191906000526020600020905b81548152906001019060200180831161078b57829003601f168201915b50505050509250965096509650965096509650965090919293949596565b84600090805190602001906107dc929190610861565b5083600290805190602001906107f3929190610861565b50826003908051906020019061080a929190610861565b508160049080519060200190610821929190610861565b508060059080519060200190610838929190610861565b5042600660006101000a81548163ffffffff021916908363ffffffff1602179055505050505050565b828054600181600116156101000203166002900490600052602060002090601f016020900481019282601f106108a257805160ff19168380011785556108d0565b828001600101855582156108d0579182015b828111156108cf5782518255916020019190600101906108b4565b5b5090506108dd91906108e1565b5090565b61090391905b808211156108ff5760008160009055506001016108e7565b5090565b905600a165627a7a723058203ae65205abd18beecb29be6328eb470582ac4f9660a757abc1bad047315ad9960029",
  "source": "pragma solidity ^0.4.22;\n\n\ncontract EssayInfo {\n  string authorName;\n  address AuthorAddr;\n  string essayName;\n  string fileHash;\n  string ipfsHash;\n  string fileType;\n  uint32 time;\n\n  constructor() public{\n    AuthorAddr = msg.sender;\n  }\n\n  function SetEssay(string authorname, string essayname, string filehash, string ipfshash, string filetype) public{\n    authorName = authorname;\n    essayName = essayname;\n    fileHash = filehash;\n    ipfsHash = ipfshash;\n    fileType = filetype;\n    time = uint32(now);\n  }\n\n  function getEssay() public view returns (string Author, string Name, string FileHash, string Type, string ipfs, uint32 Time, address authoraddr) {\n    return (authorName, essayName, fileHash, fileType, ipfsHash, time, AuthorAddr);\n  }\n}\n",
  "sourcePath": "/home/blockchain/Desktop/CityNowProject/projects/UniversityEssayHub/contracts/EssayInfo.sol",
  "compiler": {
    "name": "solc",
    "version": "0.4.24+commit.e67f0147.Emscripten.clang"
  },
  "schemaVersion": "2.0.1",
  "updatedAt": "2018-09-05T15:20:13.903Z"
}