{
  "contractName": "ipfs",
  "abi": [
    {
      "inputs": [],
      "payable": false,
      "stateMutability": "nonpayable",
      "type": "constructor"
    },
    {
      "constant": false,
      "inputs": [],
      "name": "getIPFS",
      "outputs": [
        {
          "name": "IPFSHash",
          "type": "string"
        }
      ],
      "payable": false,
      "stateMutability": "nonpayable",
      "type": "function"
    },
    {
      "constant": false,
      "inputs": [
        {
          "name": "x",
          "type": "string"
        }
      ],
      "name": "setIPFS",
      "outputs": [],
      "payable": false,
      "stateMutability": "nonpayable",
      "type": "function"
    },
    {
      "constant": false,
      "inputs": [],
      "name": "getHashFile",
      "outputs": [
        {
          "name": "Hash",
          "type": "string"
        }
      ],
      "payable": false,
      "stateMutability": "nonpayable",
      "type": "function"
    },
    {
      "constant": false,
      "inputs": [
        {
          "name": "filehash",
          "type": "string"
        }
      ],
      "name": "setHashFile",
      "outputs": [],
      "payable": false,
      "stateMutability": "nonpayable",
      "type": "function"
    }
  ],
  "bytecode": "0x608060405234801561001057600080fd5b506104a2806100206000396000f300608060405260043610610062576000357c0100000000000000000000000000000000000000000000000000000000900463ffffffff1680634efe2d1e14610067578063763bf0f0146100f7578063d19ac77a14610187578063f684afd2146101f0575b600080fd5b34801561007357600080fd5b5061007c610259565b6040518080602001828103825283818151815260200191508051906020019080838360005b838110156100bc5780820151818401526020810190506100a1565b50505050905090810190601f1680156100e95780820380516001836020036101000a031916815260200191505b509250505060405180910390f35b34801561010357600080fd5b5061010c6102fb565b6040518080602001828103825283818151815260200191508051906020019080838360005b8381101561014c578082015181840152602081019050610131565b50505050905090810190601f1680156101795780820380516001836020036101000a031916815260200191505b509250505060405180910390f35b34801561019357600080fd5b506101ee600480360381019080803590602001908201803590602001908080601f016020809104026020016040519081016040528093929190818152602001838380828437820191505050505050919291929050505061039d565b005b3480156101fc57600080fd5b50610257600480360381019080803590602001908201803590602001908080601f01602080910402602001604051908101604052809392919081815260200183838082843782019150505050505091929192905050506103b7565b005b606060008054600181600116156101000203166002900480601f0160208091040260200160405190810160405280929190818152602001828054600181600116156101000203166002900480156102f15780601f106102c6576101008083540402835291602001916102f1565b820191906000526020600020905b8154815290600101906020018083116102d457829003601f168201915b5050505050905090565b606060018054600181600116156101000203166002900480601f0160208091040260200160405190810160405280929190818152602001828054600181600116156101000203166002900480156103935780601f1061036857610100808354040283529160200191610393565b820191906000526020600020905b81548152906001019060200180831161037657829003601f168201915b5050505050905090565b80600090805190602001906103b39291906103d1565b5050565b80600190805190602001906103cd9291906103d1565b5050565b828054600181600116156101000203166002900490600052602060002090601f016020900481019282601f1061041257805160ff1916838001178555610440565b82800160010185558215610440579182015b8281111561043f578251825591602001919060010190610424565b5b50905061044d9190610451565b5090565b61047391905b8082111561046f576000816000905550600101610457565b5090565b905600a165627a7a72305820b2fb26c6045d561facc5ee8edd1cca7a8d1f33c09aa962c5a2c4d56542cb72ab0029",
  "source": "pragma solidity ^0.4.22;\n\n\ncontract ipfs {\n  string private ipfshash;\n  string private hashfile;\n  constructor() {\n  }\n\n  function getIPFS() public returns (string IPFSHash) {\n    return ipfshash;\n  }\n\n  function setIPFS(string x) public {\n    ipfshash = x;\n  }\n\n  function getHashFile() public returns (string Hash) {\n    return hashfile;\n  }\n\n  function setHashFile(string filehash) public{\n    hashfile = filehash;\n  }\n}\n",
  "sourcePath": "/home/blockchain/Desktop/CityNowProject/projects/universityEssayHub/contracts/ipfs.sol",
  "compiler": {
    "name": "solc",
    "version": "0.4.24+commit.e67f0147.Emscripten.clang"
  },
  "schemaVersion": "2.0.1",
  "updatedAt": "2018-09-15T08:30:13.216Z"
}