{
  "contractName": "onlyStudent",
  "abi": [
    {
      "constant": true,
      "inputs": [],
      "name": "stuaddr",
      "outputs": [
        {
          "name": "",
          "type": "address"
        }
      ],
      "payable": false,
      "stateMutability": "view",
      "type": "function"
    },
    {
      "inputs": [],
      "payable": false,
      "stateMutability": "nonpayable",
      "type": "constructor"
    }
  ],
  "bytecode": "0x608060405234801561001057600080fd5b50336000806101000a81548173ffffffffffffffffffffffffffffffffffffffff021916908373ffffffffffffffffffffffffffffffffffffffff16021790555060e98061005f6000396000f300608060405260043610603f576000357c0100000000000000000000000000000000000000000000000000000000900463ffffffff168063ea8e34eb146044575b600080fd5b348015604f57600080fd5b5060566098565b604051808273ffffffffffffffffffffffffffffffffffffffff1673ffffffffffffffffffffffffffffffffffffffff16815260200191505060405180910390f35b6000809054906101000a900473ffffffffffffffffffffffffffffffffffffffff16815600a165627a7a723058209b5f4fe834f293559f493e96e26d98967c50d5204968489db8c758759a2eea8c0029",
  "source": "pragma solidity ^0.4.22;\nimport \"./EssayInfo.sol\";\nimport \"./EssayHub.sol\";\n\ncontract onlyStudent {\n  constructor() public {\n    stuaddr = msg.sender;\n  }\n  address public stuaddr;\n\n  modifier onlyStudents(EssayInfo essay){\n    address addr;\n    (,,,,,,addr) = essay.getEssay();\n\n    require(\n      stuaddr == addr,\n      \"That is incorrect the address\"\n    );\n    _;\n  }\n\n  modifier checkStudent(uint cost){\n    require(stuaddr == msg.sender && msg.value >= cost,\n    \"Incorrect\");\n    _;\n  }\n}\n",
  "sourcePath": "/home/blockchain/Desktop/CityNowProject/projects/UniversityEssayHub/contracts/onlyStudent.sol",
  "compiler": {
    "name": "solc",
    "version": "0.4.24+commit.e67f0147.Emscripten.clang"
  },
  "schemaVersion": "2.0.1",
  "updatedAt": "2018-09-05T15:20:13.912Z"
}