{
  "contractName": "Science",
  "abi": [
    {
      "inputs": [],
      "payable": false,
      "stateMutability": "nonpayable",
      "type": "constructor"
    },
    {
      "constant": false,
      "inputs": [
        {
          "name": "essays",
          "type": "address[]"
        }
      ],
      "name": "printEssay",
      "outputs": [
        {
          "name": "",
          "type": "address[]"
        }
      ],
      "payable": false,
      "stateMutability": "nonpayable",
      "type": "function"
    }
  ],
  "bytecode": "0x608060405234801561001057600080fd5b506106cf806100206000396000f300608060405260043610610041576000357c0100000000000000000000000000000000000000000000000000000000900463ffffffff16806364dbbb1e14610046575b600080fd5b34801561005257600080fd5b5061007f6004803603810190808035906020019082018035906020019190919293919293905050506100d6565b6040518080602001828103825283818151815260200191508051906020019060200280838360005b838110156100c25780820151818401526020810190506100a7565b505050509050019250505060405180910390f35b606080606060006040805190810160405280600781526020017f534349454e434500000000000000000000000000000000000000000000000000815250925060206040519081016040528060008152509150600090505b8585905081101561061157858582818110151561014657fe5b9050602002013573ffffffffffffffffffffffffffffffffffffffff1673ffffffffffffffffffffffffffffffffffffffff1663902fbc3f6040518163ffffffff167c0100000000000000000000000000000000000000000000000000000000028152600401600060405180830381600087803b1580156101c657600080fd5b505af11580156101da573d6000803e3d6000fd5b505050506040513d6000823e3d601f19601f8201168201806040525060e081101561020457600080fd5b81019080805164010000000081111561021c57600080fd5b8281019050602081018481111561023257600080fd5b815185600182028301116401000000008211171561024f57600080fd5b5050929190602001805164010000000081111561026b57600080fd5b8281019050602081018481111561028157600080fd5b815185600182028301116401000000008211171561029e57600080fd5b505092919060200180516401000000008111156102ba57600080fd5b828101905060208101848111156102d057600080fd5b81518560018202830111640100000000821117156102ed57600080fd5b5050929190602001805164010000000081111561030957600080fd5b8281019050602081018481111561031f57600080fd5b815185600182028301116401000000008211171561033c57600080fd5b5050929190602001805164010000000081111561035857600080fd5b8281019050602081018481111561036e57600080fd5b815185600182028301116401000000008211171561038b57600080fd5b505092919060200180519060200190929190805190602001909291905050509091929394955090919293945090919293509091925090505080925050826040516020018082805190602001908083835b60208310151561040057805182526020820191506020810190506020830392506103db565b6001836020036101000a0380198251168184511680821785525050505050509050019150506040516020818303038152906040526040518082805190602001908083835b6020831015156104695780518252602082019150602081019050602083039250610444565b6001836020036101000a038019825116818451168082178552505050505050905001915050604051809103902060001916826040516020018082805190602001908083835b6020831015156104d357805182526020820191506020810190506020830392506104ae565b6001836020036101000a0380198251168184511680821785525050505050509050019150506040516020818303038152906040526040518082805190602001908083835b60208310151561053c5780518252602082019150602081019050602083039250610517565b6001836020036101000a0380198251168184511680821785525050505050509050019150506040518091039020600019161415610604576000868683818110151561058357fe5b9050602002013573ffffffffffffffffffffffffffffffffffffffff1690806001815401808255809150509060018203906000526020600020016000909192909190916101000a81548173ffffffffffffffffffffffffffffffffffffffff021916908373ffffffffffffffffffffffffffffffffffffffff160217905550505b808060010191505061012d565b600080548060200260200160405190810160405280929190818152602001828054801561069357602002820191906000526020600020905b8160009054906101000a900473ffffffffffffffffffffffffffffffffffffffff1673ffffffffffffffffffffffffffffffffffffffff1681526020019060010190808311610649575b50505050509350505050929150505600a165627a7a7230582084d8a48836153922c6b84e626321eb4e0e4b81e29fd7c978bd434c4333a1551f0029",
  "source": "pragma solidity ^0.4.22;\nimport \"./EssayType.sol\";\nimport \"./EssayInfo.sol\";\n\ncontract Science is EssayType {\n  constructor() public {\n  }\n  \n  EssayInfo[] scienceEssay;\n  \n  function printEssay(EssayInfo[] essays) external returns (EssayInfo[]) {\n    string memory socStr = \"SCIENCE\";\n    string memory typefile = \"\";\n    for(uint i=0; i<essays.length; i++){\n      (,,,,typefile,,) = essays[i].getEssay();\n      if(keccak256(abi.encodePacked(typefile)) == keccak256(abi.encodePacked(socStr))){\n        scienceEssay.push(essays[i]);\n      }\n    }\n    return scienceEssay;\n  }\n}\n",
  "sourcePath": "/home/blockchain/Desktop/CityNowProject/projects/UniversityEssayHub/contracts/Science.sol",
  "compiler": {
    "name": "solc",
    "version": "0.4.24+commit.e67f0147.Emscripten.clang"
  },
  "schemaVersion": "2.0.1",
  "updatedAt": "2018-09-04T13:11:15.741Z"
}