{
  "contractName": "Uploading",
  "abi": [
    {
      "constant": false,
      "inputs": [
        {
          "name": "hashfile",
          "type": "string"
        }
      ],
      "name": "checkExistAndExclusive",
      "outputs": [
        {
          "name": "",
          "type": "bool"
        }
      ],
      "payable": false,
      "stateMutability": "nonpayable",
      "type": "function"
    },
    {
      "constant": false,
      "inputs": [
        {
          "name": "cost",
          "type": "uint256"
        }
      ],
      "name": "setcostValue",
      "outputs": [],
      "payable": false,
      "stateMutability": "nonpayable",
      "type": "function"
    },
    {
      "constant": false,
      "inputs": [],
      "name": "getEssayCost",
      "outputs": [
        {
          "name": "",
          "type": "uint256"
        }
      ],
      "payable": false,
      "stateMutability": "nonpayable",
      "type": "function"
    },
    {
      "constant": true,
      "inputs": [
        {
          "name": "essay",
          "type": "address"
        }
      ],
      "name": "printEssay",
      "outputs": [],
      "payable": false,
      "stateMutability": "view",
      "type": "function"
    },
    {
      "constant": true,
      "inputs": [],
      "name": "stuaddr",
      "outputs": [
        {
          "name": "",
          "type": "address"
        }
      ],
      "payable": false,
      "stateMutability": "view",
      "type": "function"
    },
    {
      "inputs": [],
      "payable": false,
      "stateMutability": "nonpayable",
      "type": "constructor"
    },
    {
      "constant": false,
      "inputs": [
        {
          "name": "authorname",
          "type": "string"
        },
        {
          "name": "Essayname",
          "type": "string"
        },
        {
          "name": "hashfile",
          "type": "string"
        },
        {
          "name": "ipfshash",
          "type": "string"
        },
        {
          "name": "filetype",
          "type": "string"
        }
      ],
      "name": "addEssayInfo",
      "outputs": [
        {
          "name": "",
          "type": "bool"
        }
      ],
      "payable": false,
      "stateMutability": "nonpayable",
      "type": "function"
    }
  ],
  "bytecode": "0x608060405234801561001057600080fd5b5033600460006101000a81548173ffffffffffffffffffffffffffffffffffffffff021916908373ffffffffffffffffffffffffffffffffffffffff160217905550610c8b806100616000396000f300608060405260043610610078576000357c0100000000000000000000000000000000000000000000000000000000900463ffffffff1680632aae19eb1461007d578063432f4a5a146100fe57806390453d2b1461012b5780639203c5d5146101565780639462313b14610199578063ea8e34eb14610332575b600080fd5b34801561008957600080fd5b506100e4600480360381019080803590602001908201803590602001908080601f0160208091040260200160405190810160405280939291908181526020018383808284378201915050505050509192919290505050610389565b604051808215151515815260200191505060405180910390f35b34801561010a57600080fd5b50610129600480360381019080803590602001909291905050506104aa565b005b34801561013757600080fd5b506101406104b4565b6040518082815260200191505060405180910390f35b34801561016257600080fd5b50610197600480360381019080803573ffffffffffffffffffffffffffffffffffffffff1690602001909291905050506104be565b005b3480156101a557600080fd5b50610318600480360381019080803590602001908201803590602001908080601f0160208091040260200160405190810160405280939291908181526020018383808284378201915050505050509192919290803590602001908201803590602001908080601f0160208091040260200160405190810160405280939291908181526020018383808284378201915050505050509192919290803590602001908201803590602001908080601f0160208091040260200160405190810160405280939291908181526020018383808284378201915050505050509192919290803590602001908201803590602001908080601f0160208091040260200160405190810160405280939291908181526020018383808284378201915050505050509192919290803590602001908201803590602001908080601f0160208091040260200160405190810160405280939291908181526020018383808284378201915050505050509192919290505050610710565b604051808215151515815260200191505060405180910390f35b34801561033e57600080fd5b50610347610ac7565b604051808273ffffffffffffffffffffffffffffffffffffffff1673ffffffffffffffffffffffffffffffffffffffff16815260200191505060405180910390f35b6000600115156000836040518082805190602001908083835b6020831015156103c757805182526020820191506020810190506020830392506103a2565b6001836020036101000a038019825116818451168082178552505050505050905001915050908152602001604051809103902060009054906101000a900460ff16151514806104925750600115156001836040518082805190602001908083835b60208310151561044d5780518252602082019150602081019050602083039250610428565b6001836020036101000a038019825116818451168082178552505050505050905001915050908152602001604051809103902060009054906101000a900460ff161515145b156104a057600090506104a5565b600190505b919050565b8060038190555050565b6000600354905090565b8073ffffffffffffffffffffffffffffffffffffffff1663902fbc3f6040518163ffffffff167c0100000000000000000000000000000000000000000000000000000000028152600401600060405180830381600087803b15801561052257600080fd5b505af1158015610536573d6000803e3d6000fd5b505050506040513d6000823e3d601f19601f8201168201806040525060e081101561056057600080fd5b81019080805164010000000081111561057857600080fd5b8281019050602081018481111561058e57600080fd5b81518560018202830111640100000000821117156105ab57600080fd5b505092919060200180516401000000008111156105c757600080fd5b828101905060208101848111156105dd57600080fd5b81518560018202830111640100000000821117156105fa57600080fd5b5050929190602001805164010000000081111561061657600080fd5b8281019050602081018481111561062c57600080fd5b815185600182028301116401000000008211171561064957600080fd5b5050929190602001805164010000000081111561066557600080fd5b8281019050602081018481111561067b57600080fd5b815185600182028301116401000000008211171561069857600080fd5b505092919060200180516401000000008111156106b457600080fd5b828101905060208101848111156106ca57600080fd5b81518560018202830111640100000000821117156106e757600080fd5b505092919060200180519060200190929190805190602001909291905050505050505050505050565b6000806005543373ffffffffffffffffffffffffffffffffffffffff16600460009054906101000a900473ffffffffffffffffffffffffffffffffffffffff1673ffffffffffffffffffffffffffffffffffffffff161480156107735750803410155b15156107e7576040517f08c379a00000000000000000000000000000000000000000000000000000000081526004018080602001828103825260098152602001807f496e636f7272656374000000000000000000000000000000000000000000000081525060200191505060405180910390fd5b600115156107f487610389565b151514156108055760009250610abc565b8173ffffffffffffffffffffffffffffffffffffffff1663b59b3c3789898989896040518663ffffffff167c010000000000000000000000000000000000000000000000000000000002815260040180806020018060200180602001806020018060200186810386528b818151815260200191508051906020019080838360005b838110156108a1578082015181840152602081019050610886565b50505050905090810190601f1680156108ce5780820380516001836020036101000a031916815260200191505b5086810385528a818151815260200191508051906020019080838360005b838110156109075780820151818401526020810190506108ec565b50505050905090810190601f1680156109345780820380516001836020036101000a031916815260200191505b50868103845289818151815260200191508051906020019080838360005b8381101561096d578082015181840152602081019050610952565b50505050905090810190601f16801561099a5780820380516001836020036101000a031916815260200191505b50868103835288818151815260200191508051906020019080838360005b838110156109d35780820151818401526020810190506109b8565b50505050905090810190601f168015610a005780820380516001836020036101000a031916815260200191505b50868103825287818151815260200191508051906020019080838360005b83811015610a39578082015181840152602081019050610a1e565b50505050905090810190601f168015610a665780820380516001836020036101000a031916815260200191505b509a5050505050505050505050600060405180830381600087803b158015610a8d57600080fd5b505af1158015610aa1573d6000803e3d6000fd5b50505050610aae86610aed565b610ab782610bf6565b600192505b505095945050505050565b600460009054906101000a900473ffffffffffffffffffffffffffffffffffffffff1681565b600180826040518082805190602001908083835b602083101515610b265780518252602082019150602081019050602083039250610b01565b6001836020036101000a038019825116818451168082178552505050505050905001915050908152602001604051809103902060006101000a81548160ff021916908315150217905550600080826040518082805190602001908083835b602083101515610ba95780518252602082019150602081019050602083039250610b84565b6001836020036101000a038019825116818451168082178552505050505050905001915050908152602001604051809103902060006101000a81548160ff02191690831515021790555050565b60028190806001815401808255809150509060018203906000526020600020016000909192909190916101000a81548173ffffffffffffffffffffffffffffffffffffffff021916908373ffffffffffffffffffffffffffffffffffffffff16021790555050505600a165627a7a72305820c95062baa2ec0adf68d7f7831deca9f90de1852bc019150531fb06edaff762ca0029",
  "source": "pragma solidity ^0.4.22;\nimport \"./EssayHub.sol\";\nimport \"./EssayInfo.sol\";\nimport \"./onlyStudent.sol\";\n\n\ncontract Uploading is EssayHub, onlyStudent {\n  constructor() public{\n  }\n\n  uint private costValue;\n\n  function setCost(uint cost) private {\n    costValue = cost;\n  }\n\n  function addEssayInfo(string authorname, string Essayname, string hashfile, string ipfshash, string filetype) public checkStudent(costValue) returns (bool){\n    if(checkExistAndExclusive(hashfile)==true){\n      return false;\n    }\n    //Declare the EssayInfo variable\n    EssayInfo essayinfo;\n  \n    //Set essay\n    essayinfo.SetEssay(authorname, Essayname, hashfile, ipfshash, filetype);\n    setExistAndExclusive(hashfile);\n    addEssayArray(essayinfo);    \n\n    return true;\n  }\n\n}\n",
  "sourcePath": "/home/blockchain/Desktop/CityNowProject/projects/UniversityEssayHub/contracts/Uploading.sol",
  "compiler": {
    "name": "solc",
    "version": "0.4.24+commit.e67f0147.Emscripten.clang"
  },
  "schemaVersion": "2.0.1",
  "updatedAt": "2018-09-05T15:20:13.909Z"
}