{
  "contractName": "ViewFactory",
  "abi": [
    {
      "inputs": [],
      "payable": false,
      "stateMutability": "nonpayable",
      "type": "constructor"
    },
    {
      "constant": false,
      "inputs": [
        {
          "name": "typeview",
          "type": "string"
        }
      ],
      "name": "getView",
      "outputs": [
        {
          "name": "",
          "type": "address"
        }
      ],
      "payable": false,
      "stateMutability": "nonpayable",
      "type": "function"
    }
  ],
  "bytecode": "0x608060405234801561001057600080fd5b5061164c806100206000396000f300608060405260043610610041576000357c0100000000000000000000000000000000000000000000000000000000900463ffffffff16806392adb04714610046575b600080fd5b34801561005257600080fd5b506100ad600480360381019080803590602001908201803590602001908080601f01602080910402602001604051908101604052809392919081815260200183838082843782019150505050505091929192905050506100ef565b604051808273ffffffffffffffffffffffffffffffffffffffff1673ffffffffffffffffffffffffffffffffffffffff16815260200191505060405180910390f35b60006040516020018060000190506040516020818303038152906040526040518082805190602001908083835b602083101515610141578051825260208201915060208101905060208303925061011c565b6001836020036101000a038019825116818451168082178552505050505050905001915050604051809103902060001916826040516020018082805190602001908083835b6020831015156101ab5780518252602082019150602081019050602083039250610186565b6001836020036101000a0380198251168184511680821785525050505050509050019150506040516020818303038152906040526040518082805190602001908083835b60208310151561021457805182526020820191506020810190506020830392506101ef565b6001836020036101000a0380198251168184511680821785525050505050509050019150506040518091039020600019161415610250576105a7565b60405160200180807f4578636c75736976655669657700000000000000000000000000000000000000815250600d0190506040516020818303038152906040526040518082805190602001908083835b6020831015156102c557805182526020820191506020810190506020830392506102a0565b6001836020036101000a038019825116818451168082178552505050505050905001915050604051809103902060001916826040516020018082805190602001908083835b60208310151561032f578051825260208201915060208101905060208303925061030a565b6001836020036101000a0380198251168184511680821785525050505050509050019150506040516020818303038152906040526040518082805190602001908083835b6020831015156103985780518252602082019150602081019050602083039250610373565b6001836020036101000a03801982511681845116808217855250505050505090500191505060405180910390206000191614156103fb576103d76105ac565b604051809103906000f0801580156103f3573d6000803e3d6000fd5b5090506105a7565b60405160200180807f536861726556696577000000000000000000000000000000000000000000000081525060090190506040516020818303038152906040526040518082805190602001908083835b602083101515610470578051825260208201915060208101905060208303925061044b565b6001836020036101000a038019825116818451168082178552505050505050905001915050604051809103902060001916826040516020018082805190602001908083835b6020831015156104da57805182526020820191506020810190506020830392506104b5565b6001836020036101000a0380198251168184511680821785525050505050509050019150506040516020818303038152906040526040518082805190602001908083835b602083101515610543578051825260208201915060208101905060208303925061051e565b6001836020036101000a03801982511681845116808217855250505050505090500191505060405180910390206000191614156105a6576105826105bc565b604051809103906000f08015801561059e573d6000803e3d6000fd5b5090506105a7565b5b919050565b60405161082a806105cd83390190565b60405161082a80610df78339019056006080604052600060015534801561001557600080fd5b50336000806101000a81548173ffffffffffffffffffffffffffffffffffffffff021916908373ffffffffffffffffffffffffffffffffffffffff1602179055506107c5806100656000396000f300608060405260043610610057576000357c0100000000000000000000000000000000000000000000000000000000900463ffffffff16806399b162831461005c578063ea8e34eb1461011f578063f38de3d514610176575b600080fd5b34801561006857600080fd5b5061009d600480360381019080803573ffffffffffffffffffffffffffffffffffffffff1690602001909291905050506101c3565b6040518083815260200180602001828103825283818151815260200191508051906020019080838360005b838110156100e35780820151818401526020810190506100c8565b50505050905090810190601f1680156101105780820380516001836020036101000a031916815260200191505b50935050505060405180910390f35b34801561012b57600080fd5b50610134610439565b604051808273ffffffffffffffffffffffffffffffffffffffff1673ffffffffffffffffffffffffffffffffffffffff16815260200191505060405180910390f35b34801561018257600080fd5b506101c1600480360381019080803573ffffffffffffffffffffffffffffffffffffffff1690602001909291908035906020019092919050505061045e565b005b60006060808373ffffffffffffffffffffffffffffffffffffffff1663902fbc3f6040518163ffffffff167c0100000000000000000000000000000000000000000000000000000000028152600401600060405180830381600087803b15801561022c57600080fd5b505af1158015610240573d6000803e3d6000fd5b505050506040513d6000823e3d601f19601f8201168201806040525060e081101561026a57600080fd5b81019080805164010000000081111561028257600080fd5b8281019050602081018481111561029857600080fd5b81518560018202830111640100000000821117156102b557600080fd5b505092919060200180516401000000008111156102d157600080fd5b828101905060208101848111156102e757600080fd5b815185600182028301116401000000008211171561030457600080fd5b5050929190602001805164010000000081111561032057600080fd5b8281019050602081018481111561033657600080fd5b815185600182028301116401000000008211171561035357600080fd5b5050929190602001805164010000000081111561036f57600080fd5b8281019050602081018481111561038557600080fd5b81518560018202830111640100000000821117156103a257600080fd5b505092919060200180516401000000008111156103be57600080fd5b828101905060208101848111156103d457600080fd5b81518560018202830111640100000000821117156103f157600080fd5b50509291906020018051906020019092919080519060200190929190505050909192939495509091929394509091925090915090505080915050600154819250925050915091565b6000809054906101000a900473ffffffffffffffffffffffffffffffffffffffff1681565b8160008173ffffffffffffffffffffffffffffffffffffffff1663902fbc3f6040518163ffffffff167c0100000000000000000000000000000000000000000000000000000000028152600401600060405180830381600087803b1580156104c557600080fd5b505af11580156104d9573d6000803e3d6000fd5b505050506040513d6000823e3d601f19601f8201168201806040525060e081101561050357600080fd5b81019080805164010000000081111561051b57600080fd5b8281019050602081018481111561053157600080fd5b815185600182028301116401000000008211171561054e57600080fd5b5050929190602001805164010000000081111561056a57600080fd5b8281019050602081018481111561058057600080fd5b815185600182028301116401000000008211171561059d57600080fd5b505092919060200180516401000000008111156105b957600080fd5b828101905060208101848111156105cf57600080fd5b81518560018202830111640100000000821117156105ec57600080fd5b5050929190602001805164010000000081111561060857600080fd5b8281019050602081018481111561061e57600080fd5b815185600182028301116401000000008211171561063b57600080fd5b5050929190602001805164010000000081111561065757600080fd5b8281019050602081018481111561066d57600080fd5b815185600182028301116401000000008211171561068a57600080fd5b50509291906020018051906020019092919080519060200190929190505050909192939495509091929394509091929350909192509091509050809150508073ffffffffffffffffffffffffffffffffffffffff166000809054906101000a900473ffffffffffffffffffffffffffffffffffffffff1673ffffffffffffffffffffffffffffffffffffffff1614151561078c576040517f08c379a000000000000000000000000000000000000000000000000000000000815260040180806020018281038252601f8152602001807f54686174206973206e6f7420636f72726563742074686520616464726573730081525060200191505060405180910390fd5b82600181905550505050505600a165627a7a7230582034626038bae9f78f46a3e9b9c2ce50134c5d525ec10db8c3eb194da5f0b82b0b00296080604052600060015534801561001557600080fd5b50336000806101000a81548173ffffffffffffffffffffffffffffffffffffffff021916908373ffffffffffffffffffffffffffffffffffffffff1602179055506107c5806100656000396000f300608060405260043610610057576000357c0100000000000000000000000000000000000000000000000000000000900463ffffffff16806399b162831461005c578063ea8e34eb1461011f578063f38de3d514610176575b600080fd5b34801561006857600080fd5b5061009d600480360381019080803573ffffffffffffffffffffffffffffffffffffffff1690602001909291905050506101c3565b6040518083815260200180602001828103825283818151815260200191508051906020019080838360005b838110156100e35780820151818401526020810190506100c8565b50505050905090810190601f1680156101105780820380516001836020036101000a031916815260200191505b50935050505060405180910390f35b34801561012b57600080fd5b50610134610439565b604051808273ffffffffffffffffffffffffffffffffffffffff1673ffffffffffffffffffffffffffffffffffffffff16815260200191505060405180910390f35b34801561018257600080fd5b506101c1600480360381019080803573ffffffffffffffffffffffffffffffffffffffff1690602001909291908035906020019092919050505061045e565b005b60006060808373ffffffffffffffffffffffffffffffffffffffff1663902fbc3f6040518163ffffffff167c0100000000000000000000000000000000000000000000000000000000028152600401600060405180830381600087803b15801561022c57600080fd5b505af1158015610240573d6000803e3d6000fd5b505050506040513d6000823e3d601f19601f8201168201806040525060e081101561026a57600080fd5b81019080805164010000000081111561028257600080fd5b8281019050602081018481111561029857600080fd5b81518560018202830111640100000000821117156102b557600080fd5b505092919060200180516401000000008111156102d157600080fd5b828101905060208101848111156102e757600080fd5b815185600182028301116401000000008211171561030457600080fd5b5050929190602001805164010000000081111561032057600080fd5b8281019050602081018481111561033657600080fd5b815185600182028301116401000000008211171561035357600080fd5b5050929190602001805164010000000081111561036f57600080fd5b8281019050602081018481111561038557600080fd5b81518560018202830111640100000000821117156103a257600080fd5b505092919060200180516401000000008111156103be57600080fd5b828101905060208101848111156103d457600080fd5b81518560018202830111640100000000821117156103f157600080fd5b50509291906020018051906020019092919080519060200190929190505050909192939495509091929394509091925090915090505080915050600154819250925050915091565b6000809054906101000a900473ffffffffffffffffffffffffffffffffffffffff1681565b8160008173ffffffffffffffffffffffffffffffffffffffff1663902fbc3f6040518163ffffffff167c0100000000000000000000000000000000000000000000000000000000028152600401600060405180830381600087803b1580156104c557600080fd5b505af11580156104d9573d6000803e3d6000fd5b505050506040513d6000823e3d601f19601f8201168201806040525060e081101561050357600080fd5b81019080805164010000000081111561051b57600080fd5b8281019050602081018481111561053157600080fd5b815185600182028301116401000000008211171561054e57600080fd5b5050929190602001805164010000000081111561056a57600080fd5b8281019050602081018481111561058057600080fd5b815185600182028301116401000000008211171561059d57600080fd5b505092919060200180516401000000008111156105b957600080fd5b828101905060208101848111156105cf57600080fd5b81518560018202830111640100000000821117156105ec57600080fd5b5050929190602001805164010000000081111561060857600080fd5b8281019050602081018481111561061e57600080fd5b815185600182028301116401000000008211171561063b57600080fd5b5050929190602001805164010000000081111561065757600080fd5b8281019050602081018481111561066d57600080fd5b815185600182028301116401000000008211171561068a57600080fd5b50509291906020018051906020019092919080519060200190929190505050909192939495509091929394509091929350909192509091509050809150508073ffffffffffffffffffffffffffffffffffffffff166000809054906101000a900473ffffffffffffffffffffffffffffffffffffffff1673ffffffffffffffffffffffffffffffffffffffff1614151561078c576040517f08c379a000000000000000000000000000000000000000000000000000000000815260040180806020018281038252601f8152602001807f54686174206973206e6f7420636f72726563742074686520616464726573730081525060200191505060405180910390fd5b82600181905550505050505600a165627a7a72305820a299c00483b43f96f65581746c35f89c85fb7919f16c49883c3a1a15411485970029a165627a7a72305820f8ebb7be9d442d44c8f9d29dce619c8d126dd8ebadb775af8c91ca4a4be7dca90029",
  "source": "pragma solidity ^0.4.22;\nimport \"./ViewType.sol\";\nimport \"./ViewExclusiveType.sol\";\nimport \"./ViewShareType.sol\";\nimport \"./abstractViewFactory.sol\";\n\ncontract ViewFactory {\n  constructor() public{\n  }\n\n  //ViewType[] private a;\n\n  function getView(string typeview) public returns (ViewType){\n    if (keccak256(abi.encodePacked(typeview)) == keccak256(abi.encodePacked(\"\"))) {\n      return;\n    } else if(keccak256(abi.encodePacked(typeview)) == keccak256(abi.encodePacked(\"ExclusiveView\"))){\n      return new ViewExclusiveType();\n    }\n    else if(keccak256(abi.encodePacked(typeview)) == keccak256(abi.encodePacked(\"ShareView\"))){\n      return new ViewShareType();\n    }\n    return;\n  }\n}\n",
  "sourcePath": "/home/blockchain/Desktop/CityNowProject/projects/UniversityEssayHub/contracts/ViewFactory.sol",
  "compiler": {
    "name": "solc",
    "version": "0.4.24+commit.e67f0147.Emscripten.clang"
  },
  "schemaVersion": "2.0.1",
  "updatedAt": "2018-09-05T14:21:47.021Z"
}