{
  "contractName": "ViewExclusiveType",
  "abi": [
    {
      "constant": true,
      "inputs": [],
      "name": "stuaddr",
      "outputs": [
        {
          "name": "",
          "type": "address"
        }
      ],
      "payable": false,
      "stateMutability": "view",
      "type": "function"
    },
    {
      "inputs": [],
      "payable": false,
      "stateMutability": "nonpayable",
      "type": "constructor"
    },
    {
      "constant": true,
      "inputs": [
        {
          "name": "essay",
          "type": "address"
        }
      ],
      "name": "ViewProcess",
      "outputs": [
        {
          "name": "",
          "type": "uint256"
        },
        {
          "name": "",
          "type": "string"
        }
      ],
      "payable": false,
      "stateMutability": "view",
      "type": "function"
    },
    {
      "constant": false,
      "inputs": [
        {
          "name": "essay",
          "type": "address"
        },
        {
          "name": "cost",
          "type": "uint256"
        }
      ],
      "name": "setCost",
      "outputs": [],
      "payable": false,
      "stateMutability": "nonpayable",
      "type": "function"
    }
  ],
  "bytecode": "0x6080604052600060015534801561001557600080fd5b50336000806101000a81548173ffffffffffffffffffffffffffffffffffffffff021916908373ffffffffffffffffffffffffffffffffffffffff1602179055506107c5806100656000396000f300608060405260043610610057576000357c0100000000000000000000000000000000000000000000000000000000900463ffffffff16806399b162831461005c578063ea8e34eb1461011f578063f38de3d514610176575b600080fd5b34801561006857600080fd5b5061009d600480360381019080803573ffffffffffffffffffffffffffffffffffffffff1690602001909291905050506101c3565b6040518083815260200180602001828103825283818151815260200191508051906020019080838360005b838110156100e35780820151818401526020810190506100c8565b50505050905090810190601f1680156101105780820380516001836020036101000a031916815260200191505b50935050505060405180910390f35b34801561012b57600080fd5b50610134610439565b604051808273ffffffffffffffffffffffffffffffffffffffff1673ffffffffffffffffffffffffffffffffffffffff16815260200191505060405180910390f35b34801561018257600080fd5b506101c1600480360381019080803573ffffffffffffffffffffffffffffffffffffffff1690602001909291908035906020019092919050505061045e565b005b60006060808373ffffffffffffffffffffffffffffffffffffffff1663902fbc3f6040518163ffffffff167c0100000000000000000000000000000000000000000000000000000000028152600401600060405180830381600087803b15801561022c57600080fd5b505af1158015610240573d6000803e3d6000fd5b505050506040513d6000823e3d601f19601f8201168201806040525060e081101561026a57600080fd5b81019080805164010000000081111561028257600080fd5b8281019050602081018481111561029857600080fd5b81518560018202830111640100000000821117156102b557600080fd5b505092919060200180516401000000008111156102d157600080fd5b828101905060208101848111156102e757600080fd5b815185600182028301116401000000008211171561030457600080fd5b5050929190602001805164010000000081111561032057600080fd5b8281019050602081018481111561033657600080fd5b815185600182028301116401000000008211171561035357600080fd5b5050929190602001805164010000000081111561036f57600080fd5b8281019050602081018481111561038557600080fd5b81518560018202830111640100000000821117156103a257600080fd5b505092919060200180516401000000008111156103be57600080fd5b828101905060208101848111156103d457600080fd5b81518560018202830111640100000000821117156103f157600080fd5b50509291906020018051906020019092919080519060200190929190505050909192939495509091929394509091925090915090505080915050600154819250925050915091565b6000809054906101000a900473ffffffffffffffffffffffffffffffffffffffff1681565b8160008173ffffffffffffffffffffffffffffffffffffffff1663902fbc3f6040518163ffffffff167c0100000000000000000000000000000000000000000000000000000000028152600401600060405180830381600087803b1580156104c557600080fd5b505af11580156104d9573d6000803e3d6000fd5b505050506040513d6000823e3d601f19601f8201168201806040525060e081101561050357600080fd5b81019080805164010000000081111561051b57600080fd5b8281019050602081018481111561053157600080fd5b815185600182028301116401000000008211171561054e57600080fd5b5050929190602001805164010000000081111561056a57600080fd5b8281019050602081018481111561058057600080fd5b815185600182028301116401000000008211171561059d57600080fd5b505092919060200180516401000000008111156105b957600080fd5b828101905060208101848111156105cf57600080fd5b81518560018202830111640100000000821117156105ec57600080fd5b5050929190602001805164010000000081111561060857600080fd5b8281019050602081018481111561061e57600080fd5b815185600182028301116401000000008211171561063b57600080fd5b5050929190602001805164010000000081111561065757600080fd5b8281019050602081018481111561066d57600080fd5b815185600182028301116401000000008211171561068a57600080fd5b50509291906020018051906020019092919080519060200190929190505050909192939495509091929394509091929350909192509091509050809150508073ffffffffffffffffffffffffffffffffffffffff166000809054906101000a900473ffffffffffffffffffffffffffffffffffffffff1673ffffffffffffffffffffffffffffffffffffffff1614151561078c576040517f08c379a000000000000000000000000000000000000000000000000000000000815260040180806020018281038252601f8152602001807f54686174206973206e6f7420636f72726563742074686520616464726573730081525060200191505060405180910390fd5b82600181905550505050505600a165627a7a7230582034626038bae9f78f46a3e9b9c2ce50134c5d525ec10db8c3eb194da5f0b82b0b0029",
  "source": "pragma solidity ^0.4.22;\nimport \"./ViewType.sol\";\nimport \"./onlyStudent.sol\";\nimport \"./EssayInfo.sol\";\n\ncontract ViewExclusiveType is ViewType, onlyStudent {\n  constructor() public {\n  }\n\n  uint costValue = 0;\n\n  function ViewProcess(EssayInfo essay) external view returns (uint, string){\n    string memory str;\n    (,,str,,,,) = essay.getEssay();\n\n    return (costValue, str);  \n  }\n  \n  function setCost(EssayInfo essay, uint cost) public onlyStudents(essay) {\n    costValue = cost;\n  }\n\n}\n",
  "sourcePath": "/home/blockchain/Desktop/CityNowProject/projects/UniversityEssayHub/contracts/ViewExclusiveType.sol",
  "compiler": {
    "name": "solc",
    "version": "0.4.24+commit.e67f0147.Emscripten.clang"
  },
  "schemaVersion": "2.0.1",
  "updatedAt": "2018-09-05T14:21:47.037Z"
}